{
  "_format": "hh-sol-artifact-1",
  "contractName": "WavePortal",
  "sourceName": "contracts/WavePortal.sol",
  "abi": [
    {
      "inputs": [],
      "stateMutability": "nonpayable",
      "type": "constructor"
    },
    {
      "inputs": [
        {
          "internalType": "uint256",
          "name": "",
          "type": "uint256"
        }
      ],
      "name": "accounts",
      "outputs": [
        {
          "internalType": "uint256",
          "name": "id",
          "type": "uint256"
        },
        {
          "internalType": "address",
          "name": "accountAddress",
          "type": "address"
        },
        {
          "internalType": "uint256",
          "name": "waveCount",
          "type": "uint256"
        }
      ],
      "stateMutability": "view",
      "type": "function"
    },
    {
      "inputs": [],
      "name": "getTotalWaves",
      "outputs": [
        {
          "internalType": "uint256",
          "name": "",
          "type": "uint256"
        }
      ],
      "stateMutability": "view",
      "type": "function"
    },
    {
      "inputs": [
        {
          "internalType": "address",
          "name": "userAddress",
          "type": "address"
        }
      ],
      "name": "getWaveCount",
      "outputs": [
        {
          "internalType": "uint256",
          "name": "waveCount",
          "type": "uint256"
        }
      ],
      "stateMutability": "view",
      "type": "function"
    },
    {
      "inputs": [],
      "name": "wave",
      "outputs": [],
      "stateMutability": "nonpayable",
      "type": "function"
    }
  ],
  "bytecode": "0x60806040523480156200001157600080fd5b506200004160405180606001604052806035815260200162000ce3603591396200004760201b6200031f1760201c565b620001db565b620000e7816040516024016200005e919062000154565b6040516020818303038152906040527f41304fac000000000000000000000000000000000000000000000000000000007bffffffffffffffffffffffffffffffffffffffffffffffffffffffff19166020820180517bffffffffffffffffffffffffffffffffffffffffffffffffffffffff8381831617835250505050620000ea60201b60201c565b50565b60008151905060006a636f6e736f6c652e6c6f679050602083016000808483855afa5050505050565b6000620001208262000178565b6200012c818562000183565b93506200013e81856020860162000194565b6200014981620001ca565b840191505092915050565b6000602082019050818103600083015262000170818462000113565b905092915050565b600081519050919050565b600082825260208201905092915050565b60005b83811015620001b457808201518184015260208101905062000197565b83811115620001c4576000848401525b50505050565b6000601f19601f8301169050919050565b610af880620001eb6000396000f3fe608060405234801561001057600080fd5b506004361061004c5760003560e01c80635b2ae087146100515780636fe15b44146100815780639a2cdc081461008b578063f2a40db8146100a9575b600080fd5b61006b6004803603810190610066919061076f565b6100db565b60405161007891906108d8565b60405180910390f35b6100896101cd565b005b61009361028a565b6040516100a091906108d8565b60405180910390f35b6100c360048036038101906100be9190610798565b6102d5565b6040516100d2939291906108f3565b60405180910390f35b600080600190505b60015481116101c6578273ffffffffffffffffffffffffffffffffffffffff166002600083815260200190815260200160002060010160009054906101000a900473ffffffffffffffffffffffffffffffffffffffff1673ffffffffffffffffffffffffffffffffffffffff1614156101755760026000828152602001908152602001600020600201549150506101c8565b6101b36040518060400160405280601281526020017f4163636f756e74206e6f7420666f756e6421000000000000000000000000000081525061031f565b80806101be90610a0b565b9150506100e3565b505b919050565b600060019050600080600190505b6001548111610269573373ffffffffffffffffffffffffffffffffffffffff166002600083815260200190815260200160002060010160009054906101000a900473ffffffffffffffffffffffffffffffffffffffff1673ffffffffffffffffffffffffffffffffffffffff16141561025657809150600092505b808061026190610a0b565b9150506101db565b508161027d57610278816103b8565b610286565b610285610460565b5b5050565b60006102cd6040518060400160405280601181526020017f5765206861766520256420776176657321000000000000000000000000000000815250600054610545565b600054905090565b60026020528060005260406000206000915090508060000154908060010160009054906101000a900473ffffffffffffffffffffffffffffffffffffffff16908060020154905083565b6103b5816040516024016103339190610818565b6040516020818303038152906040527f41304fac000000000000000000000000000000000000000000000000000000007bffffffffffffffffffffffffffffffffffffffffffffffffffffffff19166020820180517bffffffffffffffffffffffffffffffffffffffffffffffffffffffff83818316178352505050506105e1565b50565b6000600260006001548152602001908152602001600020905060018160020160008282546103e69190610946565b9250508190555060016000808282546103ff9190610946565b9250508190555061045c6040518060400160405280601581526020017f257320686173206d61646520256420776176657321000000000000000000000081525033600260008681526020019081526020016000206002015461060a565b5050565b60018060008282546104729190610946565b92505081905550600060026000600154815260200190815260200160002090506001548160000181905550338160010160006101000a81548173ffffffffffffffffffffffffffffffffffffffff021916908373ffffffffffffffffffffffffffffffffffffffff1602179055506001816002018190555060016000808282546104fc9190610946565b925050819055506105426040518060400160405280601581526020017f5961792120466972737420776176652062792025730000000000000000000000815250336106a9565b50565b6105dd828260405160240161055b9291906108a8565b6040516020818303038152906040527f9710a9d0000000000000000000000000000000000000000000000000000000007bffffffffffffffffffffffffffffffffffffffffffffffffffffffff19166020820180517bffffffffffffffffffffffffffffffffffffffffffffffffffffffff83818316178352505050506105e1565b5050565b60008151905060006a636f6e736f6c652e6c6f679050602083016000808483855afa5050505050565b6106a48383836040516024016106229392919061086a565b6040516020818303038152906040527f07c81217000000000000000000000000000000000000000000000000000000007bffffffffffffffffffffffffffffffffffffffffffffffffffffffff19166020820180517bffffffffffffffffffffffffffffffffffffffffffffffffffffffff83818316178352505050506105e1565b505050565b61074182826040516024016106bf92919061083a565b6040516020818303038152906040527f319af333000000000000000000000000000000000000000000000000000000007bffffffffffffffffffffffffffffffffffffffffffffffffffffffff19166020820180517bffffffffffffffffffffffffffffffffffffffffffffffffffffffff83818316178352505050506105e1565b5050565b60008135905061075481610a94565b92915050565b60008135905061076981610aab565b92915050565b60006020828403121561078157600080fd5b600061078f84828501610745565b91505092915050565b6000602082840312156107aa57600080fd5b60006107b88482850161075a565b91505092915050565b6107ca8161099c565b82525050565b60006107db8261092a565b6107e58185610935565b93506107f58185602086016109d8565b6107fe81610a83565b840191505092915050565b610812816109ce565b82525050565b6000602082019050818103600083015261083281846107d0565b905092915050565b6000604082019050818103600083015261085481856107d0565b905061086360208301846107c1565b9392505050565b6000606082019050818103600083015261088481866107d0565b905061089360208301856107c1565b6108a06040830184610809565b949350505050565b600060408201905081810360008301526108c281856107d0565b90506108d16020830184610809565b9392505050565b60006020820190506108ed6000830184610809565b92915050565b60006060820190506109086000830186610809565b61091560208301856107c1565b6109226040830184610809565b949350505050565b600081519050919050565b600082825260208201905092915050565b6000610951826109ce565b915061095c836109ce565b9250827fffffffffffffffffffffffffffffffffffffffffffffffffffffffffffffffff0382111561099157610990610a54565b5b828201905092915050565b60006109a7826109ae565b9050919050565b600073ffffffffffffffffffffffffffffffffffffffff82169050919050565b6000819050919050565b60005b838110156109f65780820151818401526020810190506109db565b83811115610a05576000848401525b50505050565b6000610a16826109ce565b91507fffffffffffffffffffffffffffffffffffffffffffffffffffffffffffffffff821415610a4957610a48610a54565b5b600182019050919050565b7f4e487b7100000000000000000000000000000000000000000000000000000000600052601160045260246000fd5b6000601f19601f8301169050919050565b610a9d8161099c565b8114610aa857600080fd5b50565b610ab4816109ce565b8114610abf57600080fd5b5056fea26469706673582212201760cc493cd9dc73723a647ef3548b68c4fbf16000354047375d69ce064bb16664736f6c63430008000033492c2057617665436f6e74726163742c20686173206265656e206465706c6f796564206f6e2074686520626c6f636b636861696e21",
  "linkReferences": {},
  "deployedLinkReferences": {}
}